:100000000C94E2010C9408020C9408020C9408026F
:100010000C9408020C9408020C9408020C94080238
:100020000C9408020C9408020C9408020C94080228
:100030000C9408020C9408020C9408020C94080218
:100040000C9408020C9408020C9408020C94080208
:100050000C9408020C9408020C9408020C940802F8
:100060000C9408020C9408020C9408020C940802E8
:100070000C9408020C9408020C9408020C940802D8
:100080000C9408020C9408020C9408020C940802C8
:100090000C9408020C9408020C9408020C940802B8
:1000A0000C9408020C9408020C9408020C94C37976
:1000B0000C94157A0C9408020C9408020C94080213
:1000C0000C9408020C9408020C9408020C94080288
:1000D0000C9408020C9408020C9408020C94080278
:1000E0000C9408020C9408020C9408020C94080268
:1000F0000C9408020C9408020C9408020C94080258
:100100000C9408020C9408020C9408020C94080247
:100110000C9408020C9408020C9408020C94080237
:100120000C9408020C9408020C9408020C94080227
:100130000C9408020C9408020C9408020C94080217
:100140000C9408020C9408020C9408020C94080207
:100150000C9408020C9408020C9408020C940802F7
:100160000C9408020C9408020C9408020C940802E7
:100170000C9408020C9408020C9408020C940802D7
:100180000C9408020C9408020C9408020C940802C7
:100190000C9408020C9408020C9408020C940802B7
:1001A0000C9408020C9408020C9408020C940802A7
:1001B0000C9408020C9408020C9408020C94080297
:1001C0000C9408020C9408020C9408020C94080287
:1001D0000C9408020C9408020C9408020C94080277
:1001E0000C9408020C9408020C9408020C94080267
:1001F0000C9408020C9408020C940802B475B975AA
:10020000BE75C375C875CD75D275D775DC75E175CA
:10021000E6750C94CD750C94B4750C9412720C9414
:10022000DC750C94BE750C94C8750C940A020C9481
:10023000B9750C94C3750C9468720C94E6710C94A7
:10024000E1750C94E6750C94D2750C94D775303129
:1002500032333435363738394142434445463031FC
:1002600032333435363738394142434445463031EC
:10027000323334353637383961626364656667E630
:10028000096A85AE67BB72F36E3C3AF54FA57F52A3
:100290000E518C68059BABD9831F19CDE05B982F5D
:1002A0008A4291443771CFFBC0B5A5DBB5E95BC28B
:1002B0005639F111F159A4823F92D55E1CAB98AA30
:1002C00007D8015B8312BE853124C37D0C55745D54
:1002D000BE72FEB1DE80A706DC9B74F19BC1C169D2
:1002E0009BE48647BEEFC69DC10FCCA10C246F2CAA
:1002F000E92DAA84744ADCA9B05CDA88F9765251F7
:100300003E986DC631A8C82703B0C77F59BFF30B0D
:10031000E0C64791A7D55163CA0667292914850A03
:10032000B72738211B2EFC6D2C4D130D38535473F9
:100330000A65BB0A6A762EC9C281852C7292A1E831
:10034000BFA24B661AA8708B4BC2A3516CC719E8A9
:1003500092D1240699D685350EF470A06A1016C184
:10036000A419086C371E4C774827B5BCB034B30CC1
:100370001C394AAAD84E4FCA9C5BF36F2E68EE8296
:100380008F746F63A5781478C8840802C78CFAFF4D
:10039000BE90EB6C50A4F7A3F9BEF27871C60000D2
:1003A000000000000000000000000000000000004D
:1003B000000000000000000000000000000000003D
:1003C0000000000011241FBECFEFCDBFDFE3DEBF72
:1003D00000E00CBF18BE19BE1ABE1BBE15E2A0E09D
:1003E000B0E2E2E1F6E201E00BBF02C007900D923D
:1003F000AC3BB107D9F71BBE20E3ACEBB5E201C0C3
:100400001D92A138B207E1F70E940E500C94079399
:100410000C940000CF93DF93CDB7DEB7A197CDBF8B
:10042000DEBF88A399A388A199A1FC0182818823BA
:1004300024F588A199A1FC018281282F2F7788A11A
:1004400099A1FC01228388A199A10E940A0288A196
:1004500099A1FC018281282F206888A199A1FC0123
:10046000228328A139A188A199A140EC50E2B901C9
:100470000E94FC3180E090E063C188A199A1FC0159
:100480008081918189839A8389819A81489718F420
:1004900080E090E055C189819A81C19730F088A1B0
:1004A00099A160EC70E20E94BB3D89819A814997D5
:1004B00008F432C1CE0103968E8F9F8F80E190E0C9
:1004C0008B8F9C8F1D8E89819A81809780F088A167
:1004D00099A1FC01838194819C01285E3F4F8E8D00
:1004E0009F8D48E050E0B9010E94C88F26C08E8DD4
:1004F0009F8D48E050E060E070E00E94E38F8981CA
:100500009A81880F991F880F991F880F991F9695B8
:1005100087959695879596958795AC014851510991
:1005200088A199A1FC01838194819C01285E3F4FA1
:100530008E8D9F8DB9010E94C88F2E8D3F8D8E8D1F
:100540009F8D089648E050E0B9010E94C88FCE0107
:100550004B960E94612D88A199A1FC018381948111
:10056000489641E050E060E070E00E94E38F88A18F
:1005700099A128E130E0FC012083318388A199A171
:100580000E94612DAE01455E5F4F28A139A188A16F
:1005900099A1B9010E94222F89819A81819708F43B
:1005A000BBC080E190E08B8F9C8F89819A81889776
:1005B00080F088A199A1FC01838194819C01205E37
:1005C0003F4F8E8D9F8D48E050E0B9010E94C88F4B
:1005D00026C08E8D9F8D48E050E060E070E00E9464
:1005E000E38F89819A81880F991F880F991F880F3F
:1005F000991F969587959695879596958795AC01C1
:100600004052510988A199A1FC01838194819C01E8
:10061000205E3F4F8E8D9F8DB9010E94C88F2E8D19
:100620003F8D8E8D9F8D089648E050E0B9010E9465
:10063000C88FCE014B960E94612D9E01255E3F4FD3
:1006400088A199A148E050E0B9010E940630898153
:100650009A81899708F460C089819A81C09781F452
:1006600088A199A1FC01838194819C01285D3F4F61
:100670008E8D9F8D48E050E0B9010E94C88F26C042
:100680008E8D9F8D48E050E060E070E00E94E38F27
:1006900089819A81880F991F880F991F880F991F48
:1006A000969587959695879596958795AC0148522E
:1006B000510988A199A1FC01838194819C01285D45
:1006C0003F4F8E8D9F8DB9010E94C88F2E8D3F8D1B
:1006D0008E8D9F8D089648E050E0B9010E94C88F2A
:1006E0002E8D3F8D8E8D9F8D409648E050E0B90154
:1006F0000E94C88F88E190E08B8F9C8FCE014B9633
:100700000E94612DAE01455E5F4F28A139A188A1ED
:1007100099A1B9010E94222F09C028A139A188A15D
:1007200099A140EC50E2B9010E949D3088A199A1A5
:1007300060EC70E20E947F3188237CF780E090E0DB
:10074000A196CDBFDEBFDF91CF9108952F923F924A
:100750004F925F926F927F928F929F92AF92BF92D1
:10076000CF92DF92EF92FF920F931F93CF93DF937D
:10077000CDB7DEB7E097CDBFDEBF298F3A8F4B8F65
:100780005C8F6D8F7E8F8F8F98A3A9A2BAA2CBA208
:10079000DCA2EDA2FEA20FA318A781E089831A8232
:1007A0001B821C821D821E821F821886298D3A8D13
:1007B0004B8D5C8D6D8D7E8D8F8D98A129873A87AD
:1007C0004B875C876D877E878F87988B29A13AA19D
:1007D0004BA15CA16DA17EA18FA198A5298B3A8B1D
:1007E0004B8B5C8B6D8B7E8B8F8B988F0E94E5691A
:1007F0005FC1A988BA88CB88DC88ED88FE880F891C
:10080000188D2A2D3B2D4C2D5D2D6E2D7F2D802F8B
:10081000912F01E00E94418DA22EB32EC42ED52E21
:10082000E62EF72E082F192FA98ABA8ACB8ADC8ADE
:10083000ED8AFE8A0F8B188F0E94E56929A13AA1E3
:100840004BA15CA16DA17EA18FA198A5E22FE170C3
:10085000E9A7E32FE070EAA7E42FE070EBA7E52F0C
:10086000E070ECA7E62FE070EDA7E72FE070EEA7B1
:10087000E82FE070EFA7E92FE070E8AB29A53AA5D3
:100880004BA55CA56DA57EA58FA598A9A0E00E94AB
:100890006F8D09F474C029803A804B805C806D8034
:1008A0007E808F80988429853A854B855C856D850F
:1008B0007E858F859889A22EB32EC42ED52EE62E46
:1008C000F72E082F192F222D332D442D552D662D4F
:1008D000772D882D992D0E946E8CA22EB32EC42EBA
:1008E000D52EE62EF72E082F192F2A2C3B2C4C2C18
:1008F0005D2C6E2C7F2C802E912E27962FAD279766
:1009000028963FAD289729964FAD29972A965FAD37
:100910002A972B966FAD2B972C967FAD2C972D9603
:100920008FAD2D972E969FAD2E97A22EB32EC42E4F
:10093000D52EE62EF72E082F192F222D332D442DDC
:10094000552D662D772D882D992D0E94C78CA22EAE
:10095000B32EC42ED52EE62EF72E082F192F2A2DB2
:100960003B2D4C2D5D2D6E2D7F2D802F912F2983BA
:100970003A834B835C836D837E838F83988729843E
:100980003A844B845C846D847E848F849888298526
:100990003A854B855C856D857E858F859889A22EED
:1009A000B32EC42ED52EE62EF72E082F192F222D6A
:1009B000332D442D552D662D772D882D992D0E9490
:1009C0006E8CA22EB32EC42ED52EE62EF72E082F17
:1009D000192F2A2C3B2C4C2C5D2C6E2C7F2C802E1E
:1009E000912E27962FAD279728963FAD28972996C9
:1009F0004FAD29972A965FAD2A972B966FAD2B970F
:100A00002C967FAD2C972D968FAD2D972E969FAD62
:100A10002E97A22EB32EC42ED52EE62EF72E082FFB
:100A2000192F222D332D442D552D662D772D882DF0
:100A3000992D0E94C78CA22EB32EC42ED52EE62E41
:100A4000F72E082F192F2A2D3B2D4C2D5D2D6E2DA5
:100A50007F2D802F912F29873A874B875C876D8761
:100A60007E878F87988B0E94E569A9A0BAA0CBA04A
:100A7000DCA0EDA0FEA00FA118A52A2D3B2D4C2D2A
:100A80005D2D6E2D7F2D802F912F01E00E94418DD5
:100A9000A22EB32EC42ED52EE62EF72E082F192FF8
:100AA000A9A2BAA2CBA2DCA2EDA2FEA20FA318A714
:100AB000A9A0BAA0CBA0DCA0EDA0FEA00FA118A514
:100AC0002A2D3B2D4C2D5D2D6E2D7F2D802F912FAE
:100AD000A0E00E946F8D09F08CCE0E94E569A98884
:100AE000BA88CB88DC88ED88FE880F89188D29A00C
:100AF0003AA04BA05CA06DA07EA08FA098A42A2D48
:100B00003B2D4C2D5D2D6E2D7F2D802F912FA22CF6
:100B1000B32CC42CD52CE62CF72C082D192D0E94B3
:100B2000668D19F00E942E6962C0A9A0BAA0CBA060
:100B3000DCA0EDA0FEA00FA118A52A2D3B2D4C2D69
:100B40005D2D6E2D7F2D802F912FA0E00E946F8D47
:100B500019F00E942E694BC029803A804B805C803E
:100B60006D807E808F80988427962FAD279728965A
:100B70003FAD289729964FAD29972A965FAD2A97C2
:100B80002B966FAD2B972C967FAD2C972D968FAD16
:100B90002D972E969FAD2E97A22EB32EC42ED52E16
:100BA000E62EF72E082F192F222D332D442D552DEB
:100BB000662D772D882D992D0E94C78CA22EB32EDD
:100BC000C42ED52EE62EF72E082F192F2A2D3B2DB9
:100BD0004C2D5D2D6E2D7F2D802F912FA22EB32EAB
:100BE000C42ED52EE62EF72E082F192F04C00E94F2
:100BF000E5690E942E692A2D3B2D4C2D5D2D6E2D11
:100C00007F2D802F912FE096CDBFDEBFDF91CF915A
:100C10001F910F91FF90EF90DF90CF90BF90AF901A
:100C20009F908F907F906F905F904F903F902F900C
:100C300008952F923F924F925F926F927F928F9280
:100C40009F92AF92BF92CF92DF92EF92FF920F935B
:100C50001F93CF93DF93CDB7DEB7A197CDBFDEBF94
:100C60002A8B3B8B4C8B5D8B6E8B7F8B888F998F08
:100C7000AA8EBB8ECC8EDD8EEE8EFF8E08A319A3BE
:100C800081EE89831A861B861C861D861E861F861A
:100C9000188A198A0E94E569AFA8B8ACC9ACDAAC69
:100CA000EBACFCAC0DAD1EAD2A8D3B8D4C8D5D8D3E
:100CB0006E8D7F8D88A199A12A883B884C885D889C
:100CC0006E887F88888C998CE12FEF93E02FEF93CB
:100CD000EF2DEF93EE2DEF93ED2DEF93EC2DEF93A2
:100CE000EB2DEF93EA2DEF93A22EB32EC42ED52E2B
:100CF000E62EF72E082F192F222D332D442D552D9A
:100D0000662D772D882D992D0E94A603EDB7FEB78D
:100D10003896CDBFDEBFA22EB32EC42ED52EE62E22
:100D2000F72E082F192FAA82BB82CC82DD82EE8299
:100D3000FF82088719870E94E569AA80BB80CC8062
:100D4000DD80EE80FF80088519852FAC21963FACB1
:100D5000219722964FAC229723965FAC2397249637
:100D60006FAC249725967FAC259726968FAC269757
:100D700027969FAC27972A2D3B2D4C2D5D2D6E2D50
:100D80007F2D802F912FA22CB32CC42CD52CE62C98
:100D9000F72C082D192D0E94668D11F089819CC1B8
:100DA0000E94E569AFA8B8ACC9ACDAACEBACFCAC5E
:100DB0000DAD1EAD2A8D3B8D4C8D5D8D6E8D7F8D65
:100DC00088A199A12A883B884C885D886E887F8895
:100DD000888C998CE12FEF93E02FEF93EF2DEF9319
:100DE000EE2DEF93ED2DEF93EC2DEF93EB2DEF9395
:100DF000EA2DEF93A22EB32EC42ED52EE62EF72E7B
:100E0000082F192F222D332D442D552D662D772D8A
:100E1000882D992D0E94A603EDB7FEB73896CDBF59
:100E2000DEBFA22EB32EC42ED52EE62EF72E082F0F
:100E3000192FAA86BB86CC86DD86EE86FF86088BB8
:100E4000198BAA84BB84CC84DD84EE84FF8408895A
:100E500019892FAC21963FAC219722964FAC22974F
:100E600023965FAC239724966FAC249725967FAC8E
:100E7000259726968FAC269727969FAC27972A2DE5
:100E80003B2D4C2D5D2D6E2D7F2D802F912FA22C73
:100E9000B32CC42CD52CE62CF72C082D192D0E9430
:100EA000668D19F00E942E6955C0AA80BB80CC8047
:100EB000DD80EE80FF80088519852A843B844C8480
:100EC0005D846E847F84888899882A2D3B2D4C2DE3
:100ED0005D2D6E2D7F2D802F912FA22CB32CC42C35
:100EE000D52CE62CF72C082D192D0E94668D19F0B3
:100EF0000E942E692FC00E94E569AA80BB80CC8029
:100F0000DD80EE80FF80088519852A2D3B2D4C2D34
:100F10005D2D6E2D7F2D802F912FA0E00E946F8D73
:100F2000A1F0AA84BB84CC84DD84EE84FF8408898C
:100F300019892A2D3B2D4C2D5D2D6E2D7F2D802F57
:100F4000912FA0E00E946F8D19F40E942E6902C0BB
:100F50008EE189830E94E569AA80BB80CC80DD8018
:100F6000EE80FF80088519852FAC21963FAC219734
:100F700022964FAC229723965FAC239724966FACB2
:100F8000249725967FAC259726968FAC2697279693
:100F90009FAC27972A2D3B2D4C2D5D2D6E2D7F2D3F
:100FA000802F912FA22CB32CC42CD52CE62CF72CFF
:100FB000082D192D0E94668D11F00E942E690E9445
:100FC000E569AA84BB84CC84DD84EE84FF8408892F
:100FD00019892FAC21963FAC219722964FAC2297CE
:100FE00023965FAC239724966FAC249725967FAC0D
:100FF000259726968FAC269727969FAC27972A2D64
:101000003B2D4C2D5D2D6E2D7F2D802F912FA22CF1
:10101000B32CC42CD52CE62CF72C082D192D0E94AE
:10102000668D19F00E942E6955C00E94E569AA805C
:10103000BB80CC80DD80EE80FF80088519852A8406
:101040003B844C845D846E847F84888899882A2DB3
:101050003B2D4C2D5D2D6E2D7F2D802F912FA22CA1
:10106000B32CC42CD52CE62CF72C082D192D0E945E
:10107000668D19F00E942E692DC0AA80BB80CC809D
:10108000DD80EE80FF80088519852A2D3B2D4C2DB3
:101090005D2D6E2D7F2D802F912FA0E00E946F8DF2
:1010A000A1F0AA84BB84CC84DD84EE84FF8408890B
:1010B00019892A2D3B2D4C2D5D2D6E2D7F2D802FD6
:1010C000912FA0E00E946F8D19F40E942E6902C03A
:1010D000898102C00E942E69A196CDBFDEBFDF913B
:1010E000CF911F910F91FF90EF90DF90CF90BF9025
:1010F000AF909F908F907F906F905F904F903F90B8
:101100002F9008952F923F924F925F926F927F920D
:101110008F929F92AF92BF92CF92DF92EF92FF9207
:101120000F931F93CF93DF93CDB7DEB72B97CDBF30
:10113000DEBF2C833D834E835F83688779878A87F0
:101140009B8783EC89830E94E569A090BC25B090C1
:10115000BD25C090BE25D090BF25E090C025F09061
:10116000C1250091C2251091C3252A2D3B2D4C2D60
:101170005D2D6E2D7F2D802F912FA0E00E946F8D11
:1011800011F40E942E690E94E5692091BC253091DE
:10119000BD254091BE255091BF256091C02570911D
:1011A000C1258091C2259091C3252C803D804E8021
:1011B0005F80688479848A849B84E92FEF93E82F89
:1011C000EF93E72FEF93E62FEF93E52FEF93E42FC5
:1011D000EF93E32FEF93822F8F931F921F921F9213
:1011E0001F9285EA8F9380E98F9388E68F938FEF24
:1011F0008F930F2EF9E6AF2EF02D0F2EFAE7BF2EAC
:10120000F02DC12CD12CE12CF12C00E010E0222D8E
:10121000332D442D552D662D772D882D992D0E9427
:1012200019062DB73EB7205F3F4FCDBFDEBF8A8383
:101230000E94E5692091BC253091BD254091BE25D5
:101240005091BF256091C0257091C1258091C22524
:101250009091C3252C803D804E805F806884798486
:101260008A849B84E92FEF93E82FEF93E72FEF9386
:10127000E62FEF93E52FEF93E42FEF93E32FEF9318
:10128000822F8F931F921F921F921F9285EA8F9336
:1012900080E98F9388E68F938FEF8F930F2EF9E677
:1012A000AF2EF02D0F2EFAE7BF2EF02DC12CD12C32
:1012B000E12CF12C00E010E0222D332D442D552D92
:1012C000662D772D882D992D0E9419062DB73EB7D2
:1012D000205F3F4FCDBFDEBF8B830E94E5699A81BF
:1012E0008B81981711F00E942E690E94E5698A810E
:1012F0008E3111F081EE1AC00E94E5699A818B81CE
:10130000981711F48CE389839A818B81981719F0CF
:101310000E942E690BC08A818E3119F00E942E69BD
:1013200005C089818093F0208A8100C02B96CDBFB3
:10133000DEBFDF91CF911F910F91FF90EF90DF9073
:10134000CF90BF90AF909F908F907F906F905F9065
:101350004F903F902F9008952F923F924F925F921F
:101360006F927F928F929F92AF92BF92CF92DF92B5
:10137000EF92FF920F931F93CF93DF93CDB7DEB71A
:101380006A97CDBFDEBF82ED89831A822091BC258A
:101390003091BD254091BE255091BF256091C0255B
:1013A0007091C1258091C2259091C3252B833C83E8
:1013B0004D835E836F83788789879A879A8183E0DC
:1013C00089278A830E94E5690E94316D5C01C12CE6
:1013D000D12CE12CF12C87012A2D3B2D4C2D5D2D9C
:1013E0006E2D7F2D802F912F00E10E94268DA22E41
:1013F000B32EC42ED52EE62EF72E082F192FA0922D
:10140000BC25B092BD25C092BE25D092BF25E092EA
:10141000C025F092C1250093C2251093C3250E94D8
:10142000316D5C01C12CD12CE12CF12C87012A2DCE
:101430003B2D4C2D5D2D6E2D7F2D802F912F00E2A9
:101440000E94268DA22EB32EC42ED52EE62EF72E68
:10145000082F192F2091BC253091BD254091BE2524
:101460005091BF256091C0257091C1258091C22502
:101470009091C3252A2C222A3B2C332A4C2C442A17
:101480005D2C552A6E2C662A7F2C772A802E882A7E
:10149000912E992A2092BC253092BD254092BE25DE
:1014A0005092BF256092C0257092C1258092C225BE
:1014B0009092C3250E94316D5C01C12CD12CE12C8E
:1014C000F12C87012A2D3B2D4C2D5D2D6E2D7F2D6E
:1014D000802F912F00E30E94268DA22EB32EC42EC2
:1014E000D52EE62EF72E082F192F2091BC253091EE
:1014F000BD254091BE255091BF256091C0257091BA
:10150000C1258091C2259091C325EA2DE22BEB875E
:10151000EB2DE32BEC87EC2DE42BED87ED2DE52B6C
:10152000EE87EE2DE62BEF87EF2DE72BE88BE02FF4
:10153000E82BE98BE12FE92BEA8B8B858093BC2587
:10154000EC85E093BD258D858093BE25EE85E093E7
:10155000BF258F858093C025E889E093C1258989BF
:101560008093C225EA89E093C3259A818CE089277C
:101570008A830E94316D5C01C12CD12CE12CF12CAD
:1015800087012091BC253091BD254091BE25509109
:10159000BF256091C0257091C1258091C225909191
:1015A000C325EA2DE22BEB8BEB2DE32BEC8BEC2D03
:1015B000E42BED8BED2DE52BEE8BEE2DE62BEF8B5B
:1015C000EF2DE72BE88FE02FE82BE98FE12FE92BB8
:1015D000EA8F8B898093BC25EC89E093BD258D89AA
:1015E0008093BE25EE89E093BF258F898093C02527
:1015F000E88DE093C125898D8093C225EA8DE09323
:10160000C3252090BC253090BD254090BE2550902C
:10161000BF256090C0257090C1258090C225909014
:10162000C325AA24AA940F2EF8E6BF2EF02D0F2E64
:10163000F0E9CF2EF02D0F2EF5EADF2EF02DE12C64
:10164000F12C00E010E0222D332D442D552D662D78
:10165000772D882D992D0E94C78CA22EB32EC42ED3
:10166000D52EE62EF72E082F192F2A2D3B2D4C2D87
:101670005D2D6E2D7F2D802F912F2093BC253093D3
:10168000BD254093BE255093BF256093C025709320
:10169000C1258093C2259093C3259A8180E3892731
:1016A0008A830E94E569AB80BC80CD80DE80EF80BC
:1016B000F88409851A852090BC253090BD2540907E
:1016C000BE255090BF256090C0257090C1258090A8
:1016D000C2259090C3252A2D3B2D4C2D5D2D6E2DBE
:1016E0007F2D802F912FA22CB32CC42CD52CE62C2F
:1016F000F72C082D192D0E94668D19F40E942E6971
:101700000CC08A818F3319F00E942E6906C09A811D
:1017100080EC89278A838DE289830E94E569AB800A
:10172000BC80CD80DE80EF80F88409851A8520900A
:10173000BC253090BD254090BE255090BF256090BF
:10174000C0257090C1258090C2259090C3252A2D78
:101750003B2D4C2D5D2D6E2D7F2D802F912FA22C9A
:10176000B32CC42CD52CE62CF72C082D192D0E9457
:10177000668D19F40E942E690AC00E94E5698A816B
:101780008F3F19F00E942E6902C0898100C06A96BD
:10179000CDBFDEBFDF91CF911F910F91FF90EF90F2
:1017A000DF90CF90BF90AF909F908F907F906F9081
:1017B0005F904F903F902F900895CF93DF9300D08C
:1017C00000D0CDB7DEB78B839C836D837E8385E2AB
:1017D000898386E98A830E94E5692B813C818D811A
:1017E0009E81280F391F8B819C812817390728F08B
:1017F0008D819E818130944010F086E99EC00E94C8
:10180000E5698B819C818034910528F08B819C81D6
:101810008134944010F086E990C00E94E5692B81E4
:101820003C818D819E81820F931F8034910548F009
:101830002B813C818D819E81820F931F8134944046
:1018400010F086E97AC082E589830E94E5698B8180
:101850009C818034910508F46FC02B813C818D817F
:101860009E81820F931F8134944008F065C00E94CE
:10187000E5698981823519F00E942E6959C089E68F
:101880008A830E94E5692B813C818D819E81280F8E
:10189000391F8B819C812817390728F08D819E8103
:1018A0008130944018F00E942E6942C00E94E56980
:1018B0008B819C818034910528F08B819C818134BF
:1018C000944018F00E942E6933C00E94E5692B8174
:1018D0003C818D819E81820F931F8034910548F059
:1018E0002B813C818D819E81820F931F8134944096
:1018F00018F00E942E691CC00E94E5698B819C81B2
:101900008034910598F02B813C818D819E81820FDE
:10191000931F8134944050F40E94E5698981823597
:1019200019F00E942E6904C08A8107C086E905C0AB
:1019300000000E942E6901C086E92696CDBFDEBF59
:10194000DF91CF910895CF93DF93CDB7DEB72B977B
:10195000CDBFDEBF8E839F83688779874A875B8789
:10196000198286E98A830E94E56986E98B8386E984
:101970008C830E94E56986E98D830E94E5692A854A
:101980003B8588859985B9010E94DD0B8A830E9479
:10199000E5698A81893611F080E028C00E94E569F6
:1019A0002A853B8588859985B9010E94DD0B8B834B
:1019B0000E94E5698B81893619F00E942E690DC05D
:1019C0000E94E5694A855B85288539858E819F81DE
:1019D000B9010E94DA9281E089830E94E5698A81D7
:1019E000893619F00E942E6901C089812B96CDBFDE
:1019F000DEBFDF91CF910895CF93DF93CDB7DEB7F0
:101A00002E97CDBFDEBF8B879C876D877E870E9418
:101A1000E5698091F0208C3319F00E942E69B2C0E4
:101A20000E94E5698D859E85069720F483E10E94DA
:101A30000C11A8C08B859C85FC01818189838981DB
:101A40008F708A830E94E569898182958F708B836C
:101A50008A81823021F081E30E940C1193C08B8532
:101A60009C850296FC01808191818F8398870E94DA
:101A7000E5698B81833020F082E20E940C1182C0E4
:101A800019861A860E94E5698A81882F90E09C0158
:101A90002E5F3F4F8B81882F90E0820F931F9C0118
:101AA0008D859E858217930718F08B81833030F0E7
:101AB0000E94E56983E10E940C1164C00E94E569FF
:101AC0008B81482F50E08A81882F90E002962B85E9
:101AD0003C85280F391FCE010996B9010E94C88F95
:101AE0000E94E5698A81882F90E09C012E5F3F4F1C
:101AF0008B81882F90E0820F931F9C0189859A85A6
:101B0000280F391F8D859E858217930720F483E166
:101B10000E940C1137C08A81282F30E08B81882FDA
:101B200090E0820F931F02962B853C85820F931FB6
:101B30008C839D8349855A852F8138858C819D8131
:101B4000B9010E94A30C8E838E818130B9F48B85FC
:101B50009C852DE7FC0120838A81882F90E09C01E1
:101B60002E5F3F4F8B81882F90E0820F931F9C0147
:101B70008B859C85B9010E941C1104C081E30E94E1
:101B80000C1100002E96CDBFDEBFDF91CF910895DE
:101B90002F923F924F925F926F927F928F929F927D
:101BA000AF92BF92CF92DF92EF92FF920F931F936B
:101BB000CF93DF93CDB7DEB76F97CDBFDEBF8C8FEE
:101BC0009D8F6E8F7F8F8CEB95E28A839B830E9423
:101BD000E5698CEB95E28C839D8387E88E831F8279
:101BE0000E94E5699F8181E089278F838C8D9D8D7F
:101BF0000196FC018081882F90E081709927892BC4
:101C000009F4CAC09F8182E089278F838E8D9F8DC2
:101C1000029780F40E94E5698F81833019F00E9459
:101C20002E698EC183E10E940C118E8180958E8376
:101C30008E8186C10E94AC099F8184E089278F83B1
:101C40008E8D9F8D029718F40E942E6979C10E9493
:101C5000E5698F81873019F00E942E6971C18AE58C
:101C60008093F1202AE0CE010896FC01322F1192D8
:101C70003A95E9F787E688879F8188E089278F83EF
:101C80008C8D9D8D0196FC0180818F7389870E94C8
:101C9000E5698F818F3019F00E942E697CC0FE01AA
:101CA000389632962091BC253091BD254091BE25B5
:101CB0005091BF256091C0257091C1258091C225AA
:101CC0009091C3252083318342835383648375833A
:101CD000868397830E94E5692A813B818C819D815F
:101CE0002817390719F00E942E6955C09F8180E19D
:101CF00089278F830E94E5698A819B81FC01A080EE
:101D0000FC01B180FC01C280FC01D380FC01E480B5
:101D1000FC01F580FC010681FC0117818C819D810D
:101D2000FC012080FC013180FC014280FC015380D9
:101D3000FC016480FC017580FC018680FC019780B9
:101D40002A2D3B2D4C2D5D2D6E2D7F2D802F912F1B
:101D5000A22CB32CC42CD52CE62CF72C082D192D35
:101D60000E94668D19F00E942E6915C00E94E569D7
:101D70008F818F3119F00E942E690DC0CE01089617
:101D80006AE070E00E941C111092C4258E8180953B
:101D90008E838E81D5C0D4C00E94E5698091F120E8
:101DA0008A3541F084E20E940C118E8180958E83E9
:101DB0008E81C6C09F8182E089278F830E94E5695A
:101DC0008091C425843090F00E94E5698F81833032
:101DD00019F00E942E69B4C00E94AC0984E20E94EE
:101DE0000C118E8180958E838E81AAC08F81833065
:101DF00019F00E942E69A4C00E94E5698E8D9F8D06
:101E00000B9740F083E10E940C118E8180958E83A8
:101E10008E8196C09F8184E089278F830E94E56927
:101E20008E8D9F8D0B9718F00E942E6989C080912E
:101E3000C4258F5F8093C4258F81873019F00E945D
:101E40002E697EC00E94E5691A8A1B8A1C8A1D8A37
:101E50001E8A1F8A188E198E8E8D9F8DAC0142505E
:101E600051098C8D9D8D9C012E5F3F4FCE01429676
:101E7000B9010E94C88F9F8188E089278F830E94C3
:101E8000E569AA88BB88CC88DD88EE88FF88088D44
:101E9000198D2A2D3B2D4C2D5D2D6E2D7F2D802FE4
:101EA000912F0E94820889839F8180E189278F83F7
:101EB0000E94E5698F818F3119F00E942E6940C020
:101EC0000E94E56989818E31D9F08091C4258430E2
:101ED00078F086E30E940C119F8180E289278F832E
:101EE0000E94AC098F818F3331F00E942E6903C0AC
:101EF00085E30E940C118E8180958E838E8120C097
:101F00001A8E1B8E9F8180E289278F8387E68A8FB6
:101F10008C8D9D8D0196FC0180818F738B8FCE01FE
:101F20004A9662E070E00E941C118F818F3319F095
:101F30000E942E6905C08E8180958E838E8100C09F
:101F40006F96CDBFDEBFDF91CF911F910F91FF90B4
:101F5000EF90DF90CF90BF90AF909F908F907F9049
:101F60006F905F904F903F902F900895CF93DF93A5
:101F7000CDB7DEB76197CDBFDEBF19820E94E5699C
:101F80008091F0208C3319F00E942E6939C099811C
:101F900081E0892789830E94E5698091F0208C3354
:101FA00019F00E942E692CC00E94E569CE010296AC
:101FB00040E150E06FEF70E00E94E38F0E94E5691E
:101FC000998180E1892789830E94E569898181312E
:101FD00019F00E942E6914C0998180E289278983B3
:101FE0000E94E5698981813319F00E942E6908C039
:101FF000CE01029640E150E068E270E00E94DA9281
:102000006196CDBFDEBFDF91CF910895CF93DF936F
:10201000CDB7DEB72A97CDBFDEBF8F83988769879C
:102020007A8719820E94E569998181E089278983ED
:102030008091F0208C3319F00E942E696FC00E94AD
:10204000E569998182E08927898389859A85049742
:1020500021F083E10E940C1161C0998184E08927FD
:1020600089830E94E5698981873019F00E942E6971
:1020700055C00E94E569998188E0892789838F810D
:1020800098850196FC018081813021F082E10E94D7
:102090000C1144C0998180E1892789830E94E569F8
:1020A000998180E2892789838F8198850296FC0136
:1020B000808191818334914021F081E30E940C1151
:1020C0002DC00E94E56989818F3319F00E942E6925
:1020D00025C00E94B60F25E0CE010296FC01322FEA
:1020E00011923A95E9F781E78A838F819885019665
:1020F000FC0180818F738B838F819885FC018281A5
:102100008C838F819885FC0183818D8381E08E8310
:10211000CE01029665E070E00E941C112A96CDBFA8
:10212000DEBFDF91CF910895CF93DF93CDB7DEB7B8
:102130002597CDBFDEBF8A839B836C837D830E94FE
:10214000E5698A819B81FC0180818D3381F08A81E0
:102150009B81FC018081873251F08A819B81FC0147
:102160008081813321F081E10E940C114FC087E80A
:1021700089830E94E5698A819B81FC018081873285
:10218000B9F42C813D818A819B81B9010E94C80DDF
:1021900089830E94E5698981883711F00E942E6940
:1021A0000E94E5698981883789F10E942E692EC0D5
:1021B0000E94E5698091F0208C3321F083E30E9436
:1021C0000C1124C00E94E5698091F0208C3319F035
:1021D0000E942E691BC08A819B81FC018081813312
:1021E00041F42C813D818A819B81B9010E940610B6
:1021F0000DC08A819B81FC0180818D3339F42C8153
:102200003D818A819B81B9010E94FC0C2596CDBF3E
:10221000DEBFDF91CF910895CF93DF931F92CDB7AB
:10222000DEB7898361E070E0CE0101960E941C1147
:102230000F90DF91CF910895CF93DF9300D01F923D
:10224000CDB7DEB789839A836B837C836B817C8176
:1022500089819A8120E846E656E00E94C161249671
:10226000CDBFDEBFDF91CF910895CF93DF9300D034
:1022700000D0CDB7DEB78B839C836D837E831982BC
:102280001A828B819C81FC0120818D819E81FC01C1
:1022900080818227882F90E029813A81822B932B9D
:1022A00089839A838B819C810196FC0120818D8199
:1022B0009E810196FC0180818227882F90E02981F0
:1022C0003A81822B932B89839A838B819C810296FE
:1022D000FC0120818D819E810296FC0180818227F4
:1022E000882F90E029813A81822B932B89839A83CE
:1022F0008B819C810396FC0120818D819E810396B8
:10230000FC0180818227882F90E029813A81822BED
:10231000932B89839A838B819C810496FC01208175
:102320008D819E810496FC0180818227882F90E018
:1023300029813A81822B932B89839A838B819C817B
:102340000596FC0120818D819E810596FC0180818E
:102350008227882F90E029813A81822B932B8983D1
:102360009A838B819C810696FC0120818D819E81C0
:102370000696FC0180818227882F90E029813A818E
:10238000822B932B89839A838B819C810796FC01F6
:1023900020818D819E810796FC0180818227882F74
:1023A00090E029813A81822B932B89839A838B81B8
:1023B0009C810896FC0120818D819E810896FC01FC
:1023C00080818227882F90E029813A81822B932B6C
:1023D00089839A838B819C810996FC0120818D8160
:1023E0009E810996FC0180818227882F90E02981B7
:1023F0003A81822B932B89839A838B819C810A96C5
:10240000FC0120818D819E810A96FC0180818227BA
:10241000882F90E029813A81822B932B89839A839C
:102420008B819C810B96FC0120818D819E810B9676
:10243000FC0180818227882F90E029813A81822BBC
:10244000932B89839A838B819C810C96FC0120813C
:102450008D819E810C96FC0180818227882F90E0DF
:1024600029813A81822B932B89839A838B819C814A
:102470000D96FC0120818D819E810D96FC0180814D
:102480008227882F90E029813A81822B932B8983A0
:102490009A838B819C810E96FC0120818D819E8187
:1024A0000E96FC0180818227882F90E029813A8155
:1024B000822B932B89839A838B819C810F96FC01BD
:1024C00020818D819E810F96FC0180818227882F3B
:1024D00090E029813A81822B932B89839A838B8187
:1024E0009C814096FC0120818D819E814096FC015B
:1024F00080818227882F90E029813A81822B932B3B
:1025000089839A838B819C814196FC0120818D81F6
:102510009E814196FC0180818227882F90E029814D
:102520003A81822B932B89839A838B819C8142965B
:10253000FC0120818D819E814296FC018081822751
:10254000882F90E029813A81822B932B89839A836B
:102550008B819C814396FC0120818D819E814396D5
:10256000FC0180818227882F90E029813A81822B8B
:10257000932B89839A838B819C814496FC012081D3
:102580008D819E814496FC0180818227882F90E076
:1025900029813A81822B932B89839A838B819C8119
:1025A0004596FC0120818D819E814596FC018081AC
:1025B0008227882F90E029813A81822B932B89836F
:1025C0009A838B819C814696FC0120818D819E811E
:1025D0004696FC0180818227882F90E029813A81EC
:1025E000822B932B89839A838B819C814796FC0154
:1025F00020818D819E814796FC0180818227882FD2
:1026000090E029813A81822B932B89839A838B8155
:102610009C814896FC0120818D819E814896FC0119
:1026200080818227882F90E029813A81822B932B09
:1026300089839A838B819C814996FC0120818D81BD
:102640009E814996FC0180818227882F90E0298114
:102650003A81822B932B89839A838B819C814A9622
:10266000FC0120818D819E814A96FC018081822718
:10267000882F90E029813A81822B932B89839A833A
:102680008B819C814B96FC0120818D819E814B9694
:10269000FC0180818227882F90E029813A81822B5A
:1026A000932B89839A838B819C814C96FC0120819A
:1026B0008D819E814C96FC0180818227882F90E03D
:1026C00029813A81822B932B89839A838B819C81E8
:1026D0004D96FC0120818D819E814D96FC0180816B
:1026E0008227882F90E029813A81822B932B89833E
:1026F0009A838B819C814E96FC0120818D819E81E5
:102700004E96FC0180818227882F90E029813A81B2
:10271000822B932B89839A838B819C814F96FC011A
:1027200020818D819E814F96FC0180818227882F98
:1027300090E029813A81822B932B89839A838B8124
:102740009C818096FC0120818D819E818096FC0178
:1027500080818227882F90E029813A81822B932BD8
:1027600089839A838B819C818196FC0120818D8154
:102770009E818196FC0180818227882F90E02981AB
:102780003A81822B932B89839A838B819C818296B9
:10279000FC0120818D819E818296FC0180818227AF
:1027A000882F90E029813A81822B932B89839A8309
:1027B0008B819C818396FC0120818D819E818396F3
:1027C000FC0180818227882F90E029813A81822B29
:1027D000932B89839A838B819C818496FC01208131
:1027E0008D819E818496FC0180818227882F90E0D4
:1027F00029813A81822B932B89839A838B819C81B7
:102800008596FC0120818D819E818596FC018081C9
:102810008227882F90E029813A81822B932B89830C
:102820009A838B819C818696FC0120818D819E817B
:102830008696FC0180818227882F90E029813A8149
:10284000822B932B89839A838B819C818796FC01B1
:1028500020818D819E818796FC0180818227882F2F
:1028600090E029813A81822B932B89839A838B81F3
:102870009C818896FC0120818D819E818896FC0137
:1028800080818227882F90E029813A81822B932BA7
:1028900089839A838B819C818996FC0120818D811B
:1028A0009E818996FC0180818227882F90E0298172
:1028B0003A81822B932B89839A838B819C818A9680
:1028C000FC0120818D819E818A96FC018081822776
:1028D000882F90E029813A81822B932B89839A83D8
:1028E0008B819C818B96FC0120818D819E818B96B2
:1028F000FC0180818227882F90E029813A81822BF8
:10290000932B89839A838B819C818C96FC012081F7
:102910008D819E818C96FC0180818227882F90E09A
:1029200029813A81822B932B89839A838B819C8185
:102930008D96FC0120818D819E818D96FC01808188
:102940008227882F90E029813A81822B932B8983DB
:102950009A838B819C818E96FC0120818D819E8142
:102960008E96FC0180818227882F90E029813A8110
:10297000822B932B89839A838B819C818F96FC0178
:1029800020818D819E818F96FC0180818227882FF6
:1029900090E029813A81822B932B89839A838B81C2
:1029A0009C81C096FC0120818D819E81C096FC0196
:1029B00080818227882F90E029813A81822B932B76
:1029C00089839A838B819C81C196FC0120818D81B2
:1029D0009E81C196FC0180818227882F90E0298109
:1029E0003A81822B932B89839A838B819C81C29617
:1029F000FC0120818D819E81C296FC01808182270D
:102A0000882F90E029813A81822B932B89839A83A6
:102A10008B819C81C396FC0120818D819E81C39610
:102A2000FC0180818227882F90E029813A81822BC6
:102A3000932B89839A838B819C81C496FC0120818E
:102A40008D819E81C496FC0180818227882F90E031
:102A500029813A81822B932B89839A838B819C8154
:102A6000C596FC0120818D819E81C596FC018081E7
:102A70008227882F90E029813A81822B932B8983AA
:102A80009A838B819C81C696FC0120818D819E81D9
:102A9000C696FC0180818227882F90E029813A81A7
:102AA000822B932B89839A838B819C81C796FC010F
:102AB00020818D819E81C796FC0180818227882F8D
:102AC00090E029813A81822B932B89839A838B8191
:102AD0009C81C896FC0120818D819E81C896FC0155
:102AE00080818227882F90E029813A81822B932B45
:102AF00089839A838B819C81C996FC0120818D8179
:102B00009E81C996FC0180818227882F90E02981CF
:102B10003A81822B932B89839A838B819C81CA96DD
:102B2000FC0120818D819E81CA96FC0180818227D3
:102B3000882F90E029813A81822B932B89839A8375
:102B40008B819C81CB96FC0120818D819E81CB96CF
:102B5000FC0180818227882F90E029813A81822B95
:102B6000932B89839A838B819C81CC96FC01208155
:102B70008D819E81CC96FC0180818227882F90E0F8
:102B800029813A81822B932B89839A838B819C8123
:102B9000CD96FC0120818D819E81CD96FC018081A6
:102BA0008227882F90E029813A81822B932B898379
:102BB0009A838B819C81CE96FC0120818D819E81A0
:102BC000CE96FC0180818227882F90E029813A816E
:102BD000822B932B89839A838B819C81CF96FC01D6
:102BE00020818D819E81CF96FC0180818227882F54
:102BF00090E029813A81822B932B89839A838B8160
:102C00009C81805C9F4FFC0120818D819E81805C36
:102C10009F4FFC0180818227882F90E029813A8193
:102C2000822B932B89839A838B819C818F5B9F4F0F
:102C3000FC0120818D819E818F5B9F4FFC018081F3
:102C40008227882F90E029813A81822B932B8983D8
:102C50009A838B819C818E5B9F4FFC0120818D81AB
:102C60009E818E5B9F4FFC0180818227882F90E0A0
:102C700029813A81822B932B89839A838B819C8132
:102C80008D5B9F4FFC0120818D819E818D5B9F4FCD
:102C9000FC0180818227882F90E029813A81822B54
:102CA000932B89839A838B819C818C5B9F4FFC0142
:102CB00020818D819E818C5B9F4FFC0180818227CA
:102CC000882F90E029813A81822B932B89839A83E4
:102CD0008B819C818B5B9F4FFC0120818D819E812C
:102CE0008B5B9F4FFC0180818227882F90E0298198
:102CF0003A81822B932B89839A838B819C818A5B77
:102D00009F4FFC0120818D819E818A5B9F4FFC013A
:102D100080818227882F90E029813A81822B932B12
:102D200089839A838B819C81895B9F4FFC012081E1
:102D30008D819E81895B9F4FFC0180818227882F36
:102D400090E029813A81822B932B89839A838B810E
:102D50009C81885B9F4FFC0120818D819E81885BD7
:102D60009F4FFC0180818227882F90E029813A8142
:102D7000822B932B89839A838B819C81875B9F4FC6
:102D8000FC0120818D819E81875B9F4FFC018081AA
:102D90008227882F90E029813A81822B932B898387
:102DA0009A838B819C81865B9F4FFC0120818D8162
:102DB0009E81865B9F4FFC0180818227882F90E057
:102DC00029813A81822B932B89839A838B819C81E1
:102DD000855B9F4FFC0120818D819E81855B9F4F8C
:102DE000FC0180818227882F90E029813A81822B03
:102DF000932B89839A838B819C81845B9F4FFC01F9
:102E000020818D819E81845B9F4FFC018081822780
:102E1000882F90E029813A81822B932B89839A8392
:102E20008B819C81835B9F4FFC0120818D819E81E2
:102E3000835B9F4FFC0180818227882F90E029814E
:102E40003A81822B932B89839A838B819C81825B2D
:102E50009F4FFC0120818D819E81825B9F4FFC01F1
:102E600080818227882F90E029813A81822B932BC1
:102E700089839A838B819C81815B9F4FFC01208198
:102E80008D819E81815B9F4FFC0180818227882FED
:102E900090E029813A81822B932B89839A838B81BD
:102EA0009C81805B9F4FFC0120818D819E81805B96
:102EB0009F4FFC0180818227882F90E029813A81F1
:102EC000822B932B89839A838B819C818F5A9F4F6E
:102ED000FC0120818D819E818F5A9F4FFC01808152
:102EE0008227882F90E029813A81822B932B898336
:102EF0009A838B819C818E5A9F4FFC0120818D810A
:102F00009E818E5A9F4FFC0180818227882F90E0FE
:102F100029813A81822B932B89839A838B819C818F
:102F20008D5A9F4FFC0120818D819E818D5A9F4F2C
:102F3000FC0180818227882F90E029813A81822BB1
:102F4000932B89839A838B819C818C5A9F4FFC01A0
:102F500020818D819E818C5A9F4FFC018081822728
:102F6000882F90E029813A81822B932B89839A8341
:102F70008B819C818B5A9F4FFC0120818D819E818A
:102F80008B5A9F4FFC0180818227882F90E02981F6
:102F90003A81822B932B89839A838B819C818A5AD5
:102FA0009F4FFC0120818D819E818A5A9F4FFC0199
:102FB00080818227882F90E029813A81822B932B70
:102FC00089839A838B819C81895A9F4FFC01208140
:102FD0008D819E81895A9F4FFC0180818227882F95
:102FE00090E029813A81822B932B89839A838B816C
:102FF0009C81885A9F4FFC0120818D819E81885A37
:103000009F4FFC0180818227882F90E029813A819F
:10301000822B932B89839A838B819C81875A9F4F24
:10302000FC0120818D819E81875A9F4FFC01808108
:103030008227882F90E029813A81822B932B8983E4
:103040009A838B819C81865A9F4FFC0120818D81C0
:103050009E81865A9F4FFC0180818227882F90E0B5
:1030600029813A81822B932B89839A838B819C813E
:10307000855A9F4FFC0120818D819E81855A9F4FEB
:10308000FC0180818227882F90E029813A81822B60
:10309000932B89839A838B819C81845A9F4FFC0157
:1030A00020818D819E81845A9F4FFC0180818227DF
:1030B000882F90E029813A81822B932B89839A83F0
:1030C0008B819C81835A9F4FFC0120818D819E8141
:1030D000835A9F4FFC0180818227882F90E02981AD
:1030E0003A81822B932B89839A838B819C81825A8C
:1030F0009F4FFC0120818D819E81825A9F4FFC0150
:1031000080818227882F90E029813A81822B932B1E
:1031100089839A838B819C81815A9F4FFC012081F6
:103120008D819E81815A9F4FFC0180818227882F4B
:1031300090E029813A81822B932B89839A838B811A
:103140009C81805A9F4FFC0120818D819E81805AF5
:103150009F4FFC0180818227882F90E029813A814E
:10316000822B932B89839A838B819C818F599F4FCC
:10317000FC0120818D819E818F599F4FFC018081B0
:103180008227882F90E029813A81822B932B898393
:103190009A838B819C818E599F4FFC0120818D8168
:1031A0009E818E599F4FFC0180818227882F90E05D
:1031B00029813A81822B932B89839A838B819C81ED
:1031C0008D599F4FFC0120818D819E818D599F4F8C
:1031D000FC0180818227882F90E029813A81822B0F
:1031E000932B89839A838B819C818C599F4FFC01FF
:1031F00020818D819E818C599F4FFC018081822787
:10320000882F90E029813A81822B932B89839A839E
:103210008B819C818B599F4FFC0120818D819E81E8
:103220008B599F4FFC0180818227882F90E0298154
:103230003A81822B932B89839A838B819C818A5933
:103240009F4FFC0120818D819E818A599F4FFC01F7
:1032500080818227882F90E029813A81822B932BCD
:1032600089839A838B819C8189599F4FFC0120819E
:103270008D819E8189599F4FFC0180818227882FF3
:1032800090E029813A81822B932B89839A838B81C9
:103290009C8188599F4FFC0120818D819E81885996
:1032A0009F4FFC0180818227882F90E029813A81FD
:1032B000822B932B89839A838B819C8187599F4F83
:1032C000FC0120818D819E8187599F4FFC01808167
:1032D0008227882F90E029813A81822B932B898342
:1032E0009A838B819C8186599F4FFC0120818D811F
:1032F0009E8186599F4FFC0180818227882F90E014
:1033000029813A81822B932B89839A838B819C819B
:1033100085599F4FFC0120818D819E8185599F4F4A
:10332000FC0180818227882F90E029813A81822BBD
:10333000932B89839A838B819C8184599F4FFC01B5
:1033400020818D819E8184599F4FFC01808182273D
:10335000882F90E029813A81822B932B89839A834D
:103360008B819C8183599F4FFC0120818D819E819F
:1033700083599F4FFC0180818227882F90E029810B
:103380003A81822B932B89839A838B819C818259EA
:103390009F4FFC0120818D819E8182599F4FFC01AE
:1033A00080818227882F90E029813A81822B932B7C
:1033B00089839A838B819C8181599F4FFC01208155
:1033C0008D819E8181599F4FFC0180818227882FAA
:1033D00090E029813A81822B932B89839A838B8178
:1033E0009C8180599F4FFC0120818D819E81805955
:1033F0009F4FFC0180818227882F90E029813A81AC
:10340000822B932B89839A838B819C818F589F4F2A
:10341000FC0120818D819E818F589F4FFC0180810E
:103420008227882F90E029813A81822B932B8983F0
:103430009A838B819C818E589F4FFC0120818D81C6
:103440009E818E589F4FFC0180818227882F90E0BB
:1034500029813A81822B932B89839A838B819C814A
:103460008D589F4FFC0120818D819E818D589F4FEB
:10347000FC0180818227882F90E029813A81822B6C
:10348000932B89839A838B819C818C589F4FFC015D
:1034900020818D819E818C589F4FFC0180818227E5
:1034A000882F90E029813A81822B932B89839A83FC
:1034B0008B819C818B589F4FFC0120818D819E8147
:1034C0008B589F4FFC0180818227882F90E02981B3
:1034D0003A81822B932B89839A838B819C818A5892
:1034E0009F4FFC0120818D819E818A589F4FFC0156
:1034F00080818227882F90E029813A81822B932B2B
:1035000089839A838B819C8189589F4FFC012081FC
:103510008D819E8189589F4FFC0180818227882F51
:1035200090E029813A81822B932B89839A838B8126
:103530009C8188589F4FFC0120818D819E818858F5
:103540009F4FFC0180818227882F90E029813A815A
:10355000822B932B89839A838B819C8187589F4FE1
:10356000FC0120818D819E8187589F4FFC018081C5
:103570008227882F90E029813A81822B932B89839F
:103580009A838B819C8186589F4FFC0120818D817D
:103590009E8186589F4FFC0180818227882F90E072
:1035A00029813A81822B932B89839A838B819C81F9
:1035B00085589F4FFC0120818D819E8185589F4FAA
:1035C000FC0180818227882F90E029813A81822B1B
:1035D000932B89839A838B819C8184589F4FFC0114
:1035E00020818D819E8184589F4FFC01808182279C
:1035F000882F90E029813A81822B932B89839A83AB
:103600008B819C8183589F4FFC0120818D819E81FD
:1036100083589F4FFC0180818227882F90E0298169
:103620003A81822B932B89839A838B819C81825848
:103630009F4FFC0120818D819E8182589F4FFC010C
:1036400080818227882F90E029813A81822B932BD9
:1036500089839A838B819C8181589F4FFC012081B3
:103660008D819E8181589F4FFC0180818227882F08
:1036700090E029813A81822B932B89839A838B81D5
:103680009C8180589F4FFC0120818D819E818058B4
:103690009F4FFC0180818227882F90E029813A8109
:1036A000822B932B89839A838B819C818F579F4F89
:1036B000FC0120818D819E818F579F4FFC0180816D
:1036C0008227882F90E029813A81822B932B89834E
:1036D0009A838B819C818E579F4FFC0120818D8125
:1036E0009E818E579F4FFC0180818227882F90E01A
:1036F00029813A81822B932B89839A838B819C81A8
:103700008D579F4FFC0120818D819E818D579F4F4A
:10371000FC0180818227882F90E029813A81822BC9
:10372000932B89839A838B819C818C579F4FFC01BB
:1037300020818D819E818C579F4FFC018081822743
:10374000882F90E029813A81822B932B89839A8359
:103750008B819C818B579F4FFC0120818D819E81A5
:103760008B579F4FFC0180818227882F90E0298111
:103770003A81822B932B89839A838B819C818A57F0
:103780009F4FFC0120818D819E818A579F4FFC01B4
:1037900080818227882F90E029813A81822B932B88
:1037A00089839A838B819C8189579F4FFC0120815B
:1037B0008D819E8189579F4FFC0180818227882FB0
:1037C00090E029813A81822B932B89839A838B8184
:1037D0009C8188579F4FFC0120818D819E81885755
:1037E0009F4FFC0180818227882F90E029813A81B8
:1037F000822B932B89839A838B819C8187579F4F40
:10380000FC0120818D819E8187579F4FFC01808123
:103810008227882F90E029813A81822B932B8983FC
:103820009A838B819C8186579F4FFC0120818D81DB
:103830009E8186579F4FFC0180818227882F90E0D0
:1038400029813A81822B932B89839A838B819C8156
:1038500085579F4FFC0120818D819E8185579F4F09
:10386000FC0180818227882F90E029813A81822B78
:10387000932B89839A838B819C8184579F4FFC0172
:1038800020818D819E8184579F4FFC0180818227FA
:10389000882F90E029813A81822B932B89839A8308
:1038A0008B819C8183579F4FFC0120818D819E815C
:1038B00083579F4FFC0180818227882F90E02981C8
:1038C0003A81822B932B89839A838B819C818257A7
:1038D0009F4FFC0120818D819E8182579F4FFC016B
:1038E00080818227882F90E029813A81822B932B37
:1038F00089839A838B819C8181579F4FFC01208112
:103900008D819E8181579F4FFC0180818227882F66
:1039100090E029813A81822B932B89839A838B8132
:103920009C8180579F4FFC0120818D819E81805713
:103930009F4FFC0180818227882F90E029813A8166
:10394000822B932B89839A838B819C818F569F4FE7
:10395000FC0120818D819E818F569F4FFC018081CB
:103960008227882F90E029813A81822B932B8983AB
:103970009A838B819C818E569F4FFC0120818D8183
:103980009E818E569F4FFC0180818227882F90E078
:1039900029813A81822B932B89839A838B819C8105
:1039A0008D569F4FFC0120818D819E818D569F4FAA
:1039B000FC0180818227882F90E029813A81822B27
:1039C000932B89839A838B819C818C569F4FFC011A
:1039D00020818D819E818C569F4FFC0180818227A2
:1039E000882F90E029813A81822B932B89839A83B7
:1039F0008B819C818B569F4FFC0120818D819E8104
:103A00008B569F4FFC0180818227882F90E029816F
:103A10003A81822B932B89839A838B819C818A564E
:103A20009F4FFC0120818D819E818A569F4FFC0112
:103A300080818227882F90E029813A81822B932BE5
:103A400089839A838B819C8189569F4FFC012081B9
:103A50008D819E8189569F4FFC0180818227882F0E
:103A600090E029813A81822B932B89839A838B81E1
:103A70009C8188569F4FFC0120818D819E818856B4
:103A80009F4FFC0180818227882F90E029813A8115
:103A9000822B932B89839A838B819C8187569F4F9E
:103AA000FC0120818D819E8187569F4FFC01808182
:103AB0008227882F90E029813A81822B932B89835A
:103AC0009A838B819C8186569F4FFC0120818D813A
:103AD0009E8186569F4FFC0180818227882F90E02F
:103AE00029813A81822B932B89839A838B819C81B4
:103AF00085569F4FFC0120818D819E8185569F4F69
:103B0000FC0180818227882F90E029813A81822BD5
:103B1000932B89839A838B819C8184569F4FFC01D0
:103B200020818D819E8184569F4FFC018081822758
:103B3000882F90E029813A81822B932B89839A8365
:103B40008B819C8183569F4FFC0120818D819E81BA
:103B500083569F4FFC0180818227882F90E0298126
:103B60003A81822B932B89839A838B819C81825605
:103B70009F4FFC0120818D819E8182569F4FFC01C9
:103B800080818227882F90E029813A81822B932B94
:103B900089839A838B819C8181569F4FFC01208170
:103BA0008D819E8181569F4FFC0180818227882FC5
:103BB00090E029813A81822B932B89839A838B8190
:103BC0009C8180569F4FFC0120818D819E81805673
:103BD0009F4FFC0180818227882F90E029813A81C4
:103BE000822B932B89839A838B819C818F559F4F46
:103BF000FC0120818D819E818F559F4FFC0180812A
:103C00008227882F90E029813A81822B932B898308
:103C10009A838B819C818E559F4FFC0120818D81E1
:103C20009E818E559F4FFC0180818227882F90E0D6
:103C300029813A81822B932B89839A838B819C8162
:103C40008D559F4FFC0120818D819E818D559F4F09
:103C5000FC0180818227882F90E029813A81822B84
:103C6000932B89839A838B819C818C559F4FFC0178
:103C700020818D819E818C559F4FFC018081822700
:103C8000882F90E029813A81822B932B89839A8314
:103C90008B819C818B559F4FFC0120818D819E8162
:103CA0008B559F4FFC0180818227882F90E02981CE
:103CB0003A81822B932B89839A838B819C818A55AD
:103CC0009F4FFC0120818D819E818A559F4FFC0171
:103CD00080818227882F90E029813A81822B932B43
:103CE00089839A838B819C8189559F4FFC01208118
:103CF0008D819E8189559F4FFC0180818227882F6D
:103D000090E029813A81822B932B89839A838B813E
:103D10009C8188559F4FFC0120818D819E81885513
:103D20009F4FFC0180818227882F90E029813A8172
:103D3000822B932B89839A838B819C8187559F4FFC
:103D4000FC0120818D819E8187559F4FFC018081E0
:103D50008227882F90E029813A81822B932B8983B7
:103D60009A838B819C8186559F4FFC0120818D8198
:103D70009E8186559F4FFC0180818227882F90E08D
:103D800029813A81822B932B89839A838B819C8111
:103D900085559F4FFC0120818D819E8185559F4FC8
:103DA000FC0180818227882F90E029813A81822B33
:103DB000932B89839A838B819C8184559F4FFC012F
:103DC00020818D819E8184559F4FFC0180818227B7
:103DD000882F90E029813A81822B932B89839A83C3
:103DE0008B819C8183559F4FFC0120818D819E8119
:103DF00083559F4FFC0180818227882F90E0298185
:103E00003A81822B932B89839A838B819C81825563
:103E10009F4FFC0120818D819E8182559F4FFC0127
:103E200080818227882F90E029813A81822B932BF1
:103E300089839A838B819C8181559F4FFC012081CE
:103E40008D819E8181559F4FFC0180818227882F23
:103E500090E029813A81822B932B89839A838B81ED
:103E60009C8180559F4FFC0120818D819E818055D2
:103E70009F4FFC0180818227882F90E029813A8121
:103E8000822B932B89839A838B819C818F549F4FA4
:103E9000FC0120818D819E818F549F4FFC01808188
:103EA0008227882F90E029813A81822B932B898366
:103EB0009A838B819C818E549F4FFC0120818D8140
:103EC0009E818E549F4FFC0180818227882F90E035
:103ED00029813A81822B932B89839A838B819C81C0
:103EE0008D549F4FFC0120818D819E818D549F4F69
:103EF000FC0180818227882F90E029813A81822BE2
:103F0000932B89839A838B819C818C549F4FFC01D6
:103F100020818D819E818C549F4FFC01808182275E
:103F2000882F90E029813A81822B932B89839A8371
:103F30008B819C818B549F4FFC0120818D819E81C0
:103F40008B549F4FFC0180818227882F90E029812C
:103F50003A81822B932B89839A838B819C818A540B
:103F60009F4FFC0120818D819E818A549F4FFC01CF
:103F700080818227882F90E029813A81822B932BA0
:103F800089839A838B819C8189549F4FFC01208176
:103F90008D819E8189549F4FFC0180818227882FCB
:103FA00090E029813A81822B932B89839A838B819C
:103FB0009C8188549F4FFC0120818D819E81885473
:103FC0009F4FFC0180818227882F90E029813A81D0
:103FD000822B932B89839A838B819C8187549F4F5B
:103FE000FC0120818D819E8187549F4FFC0180813F
:103FF0008227882F90E029813A81822B932B898315
:104000009A838B819C8186549F4FFC0120818D81F6
:104010009E8186549F4FFC0180818227882F90E0EB
:1040200029813A81822B932B89839A838B819C816E
:1040300085549F4FFC0120818D819E8185549F4F27
:10404000FC0180818227882F90E029813A81822B90
:10405000932B89839A838B819C8184549F4FFC018D
:1040600020818D819E8184549F4FFC018081822715
:10407000882F90E029813A81822B932B89839A8320
:104080008B819C8183549F4FFC0120818D819E8177
:1040900083549F4FFC0180818227882F90E02981E3
:1040A0003A81822B932B89839A838B819C818254C2
:1040B0009F4FFC0120818D819E8182549F4FFC0186
:1040C00080818227882F90E029813A81822B932B4F
:1040D00089839A838B819C8181549F4FFC0120812D
:1040E0008D819E8181549F4FFC0180818227882F82
:1040F00090E029813A81822B932B89839A838B814B
:104100009C8180549F4FFC0120818D819E81805431
:104110009F4FFC0180818227882F90E029813A817E
:10412000822B932B89839A838B819C818F539F4F02
:10413000FC0120818D819E818F539F4FFC018081E6
:104140008227882F90E029813A81822B932B8983C3
:104150009A838B819C818E539F4FFC0120818D819E
:104160009E818E539F4FFC0180818227882F90E093
:1041700029813A81822B932B89839A838B819C811D
:104180008D539F4FFC0120818D819E818D539F4FC8
:10419000FC0180818227882F90E029813A81822B3F
:1041A000932B89839A838B819C818C539F4FFC0135
:1041B00020818D819E818C539F4FFC0180818227BD
:1041C000882F90E029813A81822B932B89839A83CF
:1041D0008B819C818B539F4FFC0120818D819E811F
:1041E0008B539F4FFC0180818227882F90E029818B
:1041F0003A81822B932B89839A838B819C818A536A
:104200009F4FFC0120818D819E818A539F4FFC012D
:1042100080818227882F90E029813A81822B932BFD
:1042200089839A838B819C8189539F4FFC012081D4
:104230008D819E8189539F4FFC0180818227882F29
:1042400090E029813A81822B932B89839A838B81F9
:104250009C8188539F4FFC0120818D819E818853D2
:104260009F4FFC0180818227882F90E029813A812D
:10427000822B932B89839A838B819C8187539F4FB9
:10428000FC0120818D819E8187539F4FFC0180819D
:104290008227882F90E029813A81822B932B898372
:1042A0009A838B819C8186539F4FFC0120818D8155
:1042B0009E8186539F4FFC0180818227882F90E04A
:1042C00029813A81822B932B89839A838B819C81CC
:1042D00085539F4FFC0120818D819E8185539F4F87
:1042E000FC0180818227882F90E029813A81822BEE
:1042F000932B89839A838B819C8184539F4FFC01EC
:1043000020818D819E8184539F4FFC018081822773
:10431000882F90E029813A81822B932B89839A837D
:104320008B819C8183539F4FFC0120818D819E81D5
:1043300083539F4FFC0180818227882F90E0298141
:104340003A81822B932B89839A838B819C81825320
:104350009F4FFC0120818D819E8182539F4FFC01E4
:1043600080818227882F90E029813A81822B932BAC
:1043700089839A838B819C8181539F4FFC0120818B
:104380008D819E8181539F4FFC0180818227882FE0
:1043900090E029813A81822B932B89839A838B81A8
:1043A0009C8180539F4FFC0120818D819E81805391
:1043B0009F4FFC0180818227882F90E029813A81DC
:1043C000822B932B89839A838B819C818F529F4F61
:1043D000FC0120818D819E818F529F4FFC01808145
:1043E0008227882F90E029813A81822B932B898321
:1043F0009A838B819C818E529F4FFC0120818D81FD
:104400009E818E529F4FFC0180818227882F90E0F1
:1044100029813A81822B932B89839A838B819C817A
:104420008D529F4FFC0120818D819E818D529F4F27
:10443000FC0180818227882F90E029813A81822B9C
:10444000932B89839A838B819C818C529F4FFC0193
:1044500020818D819E818C529F4FFC01808182271B
:10446000882F90E029813A81822B932B89839A832C
:104470008B819C818B529F4FFC0120818D819E817D
:104480008B529F4FFC0180818227882F90E02981E9
:104490003A81822B932B89839A838B819C818A52C8
:1044A0009F4FFC0120818D819E818A529F4FFC018C
:1044B00080818227882F90E029813A81822B932B5B
:1044C00089839A838B819C8189529F4FFC01208133
:1044D0008D819E8189529F4FFC0180818227882F88
:1044E00090E029813A81822B932B89839A838B8157
:1044F0009C8188529F4FFC0120818D819E81885232
:104500009F4FFC0180818227882F90E029813A818A
:10451000822B932B89839A838B819C8187529F4F17
:10452000FC0120818D819E8187529F4FFC018081FB
:104530008227882F90E029813A81822B932B8983CF
:104540009A838B819C8186529F4FFC0120818D81B3
:104550009E8186529F4FFC0180818227882F90E0A8
:1045600029813A81822B932B89839A838B819C8129
:1045700085529F4FFC0120818D819E8185529F4FE6
:10458000FC0180818227882F90E029813A81822B4B
:10459000932B89839A838B819C8184529F4FFC014A
:1045A00020818D819E8184529F4FFC0180818227D2
:1045B000882F90E029813A81822B932B89839A83DB
:1045C0008B819C8183529F4FFC0120818D819E8134
:1045D00083529F4FFC0180818227882F90E02981A0
:1045E0003A81822B932B89839A838B819C8182527F
:1045F0009F4FFC0120818D819E8182529F4FFC0143
:1046000080818227882F90E029813A81822B932B09
:1046100089839A838B819C8181529F4FFC012081E9
:104620008D819E8181529F4FFC0180818227882F3E
:1046300090E029813A81822B932B89839A838B8105
:104640009C8180529F4FFC0120818D819E818052F0
:104650009F4FFC0180818227882F90E029813A8139
:10466000822B932B89839A838B819C818F519F4FBF
:10467000FC0120818D819E818F519F4FFC018081A3
:104680008227882F90E029813A81822B932B89837E
:104690009A838B819C818E519F4FFC0120818D815B
:1046A0009E818E519F4FFC0180818227882F90E050
:1046B00029813A81822B932B89839A838B819C81D8
:1046C0008D519F4FFC0120818D819E818D519F4F87
:1046D000FC0180818227882F90E029813A81822BFA
:1046E000932B89839A838B819C818C519F4FFC01F2
:1046F00020818D819E818C519F4FFC01808182277A
:10470000882F90E029813A81822B932B89839A8389
:104710008B819C818B519F4FFC0120818D819E81DB
:104720008B519F4FFC0180818227882F90E0298147
:104730003A81822B932B89839A838B819C818A5126
:104740009F4FFC0120818D819E818A519F4FFC01EA
:1047500080818227882F90E029813A81822B932BB8
:1047600089839A838B819C8189519F4FFC01208191
:104770008D819E8189519F4FFC0180818227882FE6
:1047800090E029813A81822B932B89839A838B81B4
:104790009C8188519F4FFC0120818D819E81885191
:1047A0009F4FFC0180818227882F90E029813A81E8
:1047B000822B932B89839A838B819C8187519F4F76
:1047C000FC0120818D819E8187519F4FFC0180815A
:1047D0008227882F90E029813A81822B932B89832D
:1047E0009A838B819C8186519F4FFC0120818D8112
:1047F0009E8186519F4FFC0180818227882F90E007
:1048000029813A81822B932B89839A838B819C8186
:1048100085519F4FFC0120818D819E8185519F4F45
:10482000FC0180818227882F90E029813A81822BA8
:10483000932B89839A838B819C8184519F4FFC01A8
:1048400020818D819E8184519F4FFC018081822730
:10485000882F90E029813A81822B932B89839A8338
:104860008B819C8183519F4FFC0120818D819E8192
:1048700083519F4FFC0180818227882F90E02981FE
:104880003A81822B932B89839A838B819C818251DD
:104890009F4FFC0120818D819E8182519F4FFC01A1
:1048A00080818227882F90E029813A81822B932B67
:1048B00089839A838B819C8181519F4FFC01208148
:1048C0008D819E8181519F4FFC0180818227882F9D
:1048D00090E029813A81822B932B89839A838B8163
:1048E0009C8180519F4FFC0120818D819E81805150
:1048F0009F4FFC0180818227882F90E029813A8197
:10490000822B932B89839A838B819C818F509F4F1D
:10491000FC0120818D819E818F509F4FFC01808101
:104920008227882F90E029813A81822B932B8983DB
:104930009A838B819C818E509F4FFC0120818D81B9
:104940009E818E509F4FFC0180818227882F90E0AE
:1049500029813A81822B932B89839A838B819C8135
:104960008D509F4FFC0120818D819E818D509F4FE6
:10497000FC0180818227882F90E029813A81822B57
:10498000932B89839A838B819C818C509F4FFC0150
:1049900020818D819E818C509F4FFC0180818227D8
:1049A000882F90E029813A81822B932B89839A83E7
:1049B0008B819C818B509F4FFC0120818D819E813A
:1049C0008B509F4FFC0180818227882F90E02981A6
:1049D0003A81822B932B89839A838B819C818A5085
:1049E0009F4FFC0120818D819E818A509F4FFC0149
:1049F00080818227882F90E029813A81822B932B16
:104A000089839A838B819C8189509F4FFC012081EF
:104A10008D819E8189509F4FFC0180818227882F44
:104A200090E029813A81822B932B89839A838B8111
:104A30009C8188509F4FFC0120818D819E818850F0
:104A40009F4FFC0180818227882F90E029813A8145
:104A5000822B932B89839A838B819C8187509F4FD4
:104A6000FC0120818D819E8187509F4FFC018081B8
:104A70008227882F90E029813A81822B932B89838A
:104A80009A8389819A812696CDBFDEBFDF91CF912F
:104A90000895CF93DF93CDB7DEB780915D2EDF9180
:104AA000CF910895CF93DF931F92CDB7DEB789835F
:104AB000898180935D2E0F90DF91CF910895CF93E0
:104AC000DF93CDB7DEB780915E2EDF91CF91089551
:104AD000CF93DF931F92CDB7DEB78983898180930F
:104AE0005E2E0F90DF91CF910895CF93DF93CDB7D6
:104AF000DEB72C97CDBFDEBFCE0102960E94A7295C
:104B000089838981882351F480911F2190912021EC
:104B100065E672E20E9423720E94AD8F4C856A8521
:104B20007B858091BF219091C0219E012E5F3F4FD8
:104B30000E94EB772C96CDBFDEBFDF91CF91089519
:104B4000CF93DF93CDB7DEB76197CDBFDEBF8E8742
:104B50009F87688B798B888999890596FC012081CC
:104B600089E8289F812D1124982F969596959695E2
:104B7000892F880F890F982F990F990F890F922FDE
:104B8000981B892F90E089839A8389819A8109975C
:104B900058F08E859F852BE0FE013396DC01019055
:104BA0000D922A95E1F736C0888999899C012A5F80
:104BB0003F4F49815A81CE010396B9010E94C88FA7
:104BC00089818D87888999890196FC018081882F48
:104BD00090E09C01220F331F220F331F220F331F3F
:104BE000888999890296FC018081829586958770D3
:104BF000882F90E087709927822B932B8B879C8737
:104C00008E859F852BE0FE013396DC0101900D928D
:104C10002A95E1F78E859F856196CDBFDEBFDF9136
:104C2000CF910895EF92FF920F931F93CF93DF934D
:104C3000CDB7DEB72B97CDBFDEBFE982FA820B83FB
:104C40001C832D833E834F83588769877A878B87A0
:104C500080915E2E833611F480E01CC080915E2E20
:104C6000282F30E04BE0429FC001439F900D11245C
:104C70008F5E954D4BE09E012F5F3F4FF901DC01A8
:104C800001900D924A95E1F780915E2E8F5F80939F
:104C90005E2E81E02B96CDBFDEBFDF91CF911F91BD
:104CA0000F91FF90EF900895CF93DF931F921F9283
:104CB000CDB7DEB719821A828091112A82958F7042
:104CC000882F90E08F709927892B81F480911B2A7F
:104CD000882F90E08F709927019789839A83898123
:104CE0009A81099708F180E090E020C08091112A14
:104CF00082958F70882F90E08F7099270197A1F48B
:104D00008091112A882F90E08F709927982F8827FB
:104D100089839A838091122A882F90E029813A8191
:104D2000822B932B89839A8389819A810F900F908C
:104D3000DF91CF910895CF93DF93CDB7DEB7809108
:104D4000192A90911A2ADF91CF910895CF92DF927C
:104D5000EF92FF920F931F93CF93DF93CDB7DEB700
:104D60002E97CDBFDEBF8A839B83CC82DD82EE820D
:104D7000FF82088719872A873B874C875D876E8764
:104D80008E858F70815089838981893010F080E011
:104D90000EC08981482F50E0CE0104969C012F5F00
:104DA0003F4F8A819B81B9010E94C88F89812E96CD
:104DB000CDBFDEBFDF91CF911F910F91FF90EF909C
:104DC000DF90CF900895CF93DF931F921F92CDB7BE
:104DD000DEB70E94542689839A838091112A829596
:104DE0008F70882F90E08F7099270197F1F4809150
:104DF0005E2EE82FF0E049815A819A01A3E9B4E2DE
:104E00000E94548C9A01281B390B36952795820FE6
:104E1000931F9695879596958795019621E0E817BB
:104E2000F90708F420E0822F06C090915E2E81E001
:104E3000992309F480E00F900F90DF91CF910895AE
:104E4000CF92DF92EF92FF920F931F93CF93DF9356
:104E5000CDB7DEB76C97CDBFDEBF8B8F9C8F1D8229
:104E600016C080915E2E882F90E04BE0489F900105
:104E7000499F300D1124A9016CE17AE281E19AE2A7
:104E80000E94D18F80915E2E815080935E2E809102
:104E9000112A82958F70882F90E08F709927039741
:104EA00001F38091112A82958F70882F90E08F7086
:104EB0009927892B51F50E949B268E839F830E9400
:104EC000542688879987288539858B8D9C8DA901E3
:104ED00062E17AE20E94C88F80915E2E882F90E076
:104EE0004BE0489F9001499F300D1124A9016CE1CE
:104EF0007AE281E19AE20E94D18F80915E2E815008
:104F000080935E2E8E819F81E2C08091112A8295CE
:104F10008F70882F90E08F7099270297A9F5CE01A6
:104F20004096E12C00E020E035E040E062E00E94A5
:104F3000C12ACE01409661E00E946A298A878A854B
:104F4000882349F40E947C6A0E947525CE01409610
:104F500061E00E946A2980915E2E882F90E04BE0EC
:104F6000489F9001499F300D1124A9016CE17AE21C
:104F700081E19AE20E94D18F80915E2E81508093D0
:104F80005E2E80E090E0A3C00E949B268B879C87CA
:104F90000E9454268D879E878B8D9C8D46E050E025
:104FA00063E17AE20E94C88F86E090E089839A8369
:104FB00081E090E08B839C8343C02B8D3C8D898165
:104FC0009A81F901E80FF91F2B813C814BE0429F48
:104FD000C001439F900D11248F5E954DDC01CC9054
:104FE000DC011196DC90DC011296EC90DC0113964A
:104FF000FC90DC0114960C91DC0115961C91DC01EF
:1050000016962C91DC0117963C91DC0118964C9178
:10501000DC0119965C91DC011A966C91CF010E941B
:10502000A6268F878F85882F90E029813A81820F6D
:10503000931F89839A838B819C8101968B839C83A8
:1050400029813A818D859E852817390708F4B5CFC7
:105050008D859E85892B49F480915E2E882329F0C9
:1050600080915E2E815080935E2E80915E2E282F3F
:1050700030E08D859E852817390718F410925E2E32
:1050800008C090915E2E8D85B92FB81B8B2F809311
:105090005E2E80915E2E282F30E04BE0429FC001B3
:1050A000439F900D1124AC014F5F5F4F2B813C81DA
:1050B0006BE0629FC001639F900D11248F5E954D40
:1050C000BC0181E19AE20E94D18F8B859C856C9610
:1050D000CDBFDEBFDF91CF911F910F91FF90EF9079
:1050E000DF90CF9008950F93CF93DF93CDB7DEB7C6
:1050F0002B97CDBFDEBF8D839E836F8378874987D3
:105100005A872B878F819885089728F481E090E053
:1051100089839A8315C04F8158859A01A3E9B4E227
:105120000E94548C9A01281B390B36952795820FC3
:10513000931F9695879596958795019689839A836F
:1051400089819A814BE0489F9001499F300D11243D
:10515000C9010E94978D8B839C8329853A854F8155
:1051600058856D817E818B819C810B850E94C92829
:1051700029818B819C81622F0E946A298B819C816D
:105180000E942C8E2B96CDBFDEBFDF91CF910F9169
:105190000895EF92FF920F93CF93DF93CDB7DEB7D1
:1051A000A597CDBFDEBF8A8B9B8B6C8B7D8B4E8B87
:1051B0005F8B288F398F0A8F8E899F890897A8F473
:1051C0004E89EA88FB88CE014B96288D398D6C89F3
:1051D0007D890A8D0E94DB298BE0FE017B96D70139
:1051E00001900D928A95E1F76CC0EA88FB88CE01A8
:1051F0004B96288D398D4E895F896C897D890A8D02
:105200000E94232A8BE0FE017B96D70101900D922C
:105210008A95E1F786E090E089839A8381E090E0C7
:105220008B839C8346C02E893F8989819A81A901FD
:10523000481B590BCA018D839E838D819E810897DF
:1052400020F087E090E08D839E838B81582F5F70E4
:105250004D812C893D8989819A81B901680F791F17
:10526000288D398DCE010796E52E0A8D0E94762A6B
:105270002B813C814BE0429FC001439F900D112444
:105280002A893B89820F931F2BE0FE013796DC01B0
:1052900001900D922A95E1F78B819C8101968B8379
:1052A0009C8329813A818D819E81820F931F8983FE
:1052B0009A8329813A818E899F892817390708F4B2
:1052C000B2CFA596CDBFDEBFDF91CF910F91FF90FA
:1052D000EF900895CF93DF9300D0CDB7DEB78983E9
:1052E0009A836B838B81282F30E080915D2E882FED
:1052F00090E0820F931F8436910514F080E021C066
:105300008B81882F90E02BE0289FA001299F500DD2
:10531000112480915D2E282F30E06BE0629FC00148
:10532000639F900D11248B539A4D29813A81B901C5
:105330000E94C88F90915D2E8B81890F80935D2E86
:1053400081E02396CDBFDEBFDF91CF910895CF934B
:10535000DF931F921F92CDB7DEB789839A83809126
:105360005D2E882311F480E021C089819A812BE091
:10537000E5ECF5E2DC0101900D922A95E1F78091D0
:105380005D2E815080935D2E80915D2E882F90E060
:105390004BE0489F9001499F300D1124A90160ED19
:1053A00075E285EC95E20E94D18F81E00F900F901D
:1053B000DF91CF9108950F93CF93DF93CDB7DEB7F1
:1053C0006397CDBFDEBF8C879D876E877F87488BB5
:1053D000298B3A8B0B8B8889883050F080911F2164
:1053E0009091202164E872E20E9423720E94AD8FA6
:1053F000888989838889482F50E02E853F85CE0192
:105400000296B9010E94C88F89899A8989879A87EB
:105410008B89807F98899F5F892B8B878C859D8561
:105420004BE09E012F5F3F4FF901DC0101900D928F
:105430004A95E1F78C859D856396CDBFDEBFDF91F0
:10544000CF910F9108950F93CF93DF93CDB7DEB730
:105450006497CDBFDEBF8C879D876E877F87488B23
:10546000598B2A8B3B8B0C8B88899989089728F05C
:10547000888999898115904150F080911F219091E0
:10548000202164E872E20E9423720E94AD8F888915
:105490009989892F99278F708061898388898A8368
:1054A0002E853F85CE01039646E050E0B9010E946B
:1054B000C88F8A899B8989879A878C89807F886031
:1054C0008B878C859D854BE09E012F5F3F4FF901B7
:1054D000DC0101900D924A95E1F78C859D856496DB
:1054E000CDBFDEBFDF91CF910F910895EF920F9363
:1054F000CF93DF93CDB7DEB76497CDBFDEBF8C8788
:105500009D876E877F87488B298B3A8B0B8BEC8A24
:105510008889883050F080911F219091202164E883
:1055200072E20E9423720E94AD8F8C898F7080621C
:1055300089838889482F50E02E853F85CE010296C9
:10554000B9010E94C88F89899A8989879A878B892E
:10555000807F98899F5F892B8B878C859D854BE009
:105560009E012F5F3F4FF901DC0101900D924A959A
:10557000E1F76496CDBFDEBFDF91CF910F91EF9041
:105580000895EF920F93CF93DF93CDB7DEB7639774
:10559000CDBFDEBF8C879D876E874F87288B398B69
:1055A0000A8BEB8A8E858F70806389838F858A83CF
:1055B0008B898B838889998989879A878A89807F53
:1055C00083608B878C859D854BE09E012F5F3F4FCD
:1055D000F901DC0101900D924A95E1F78C859D85DA
:1055E0006396CDBFDEBFDF91CF910F91EF9008950D
:1055F000EF92FF920F931F93CF93DF93CDB7DEB758
:105600006697CDBFDEBF898B9A8B6B8B7C8B4D8B66
:105610005E8B20E1CE010196FC01322F11923A956A
:10562000E9F740E150E068E270E0CE0101960E94A7
:10563000BE928B899C89880F991F880F991F880FAC
:10564000991FCC01A0E0B0E029893A89ED89FE8953
:105650007C018D0140E850E0CE010196BC01CF01F4
:105660000E94034B6696CDBFDEBFDF91CF911F91A5
:105670000F91FF90EF900895EF92FF920F931F9379
:10568000CF93DF93CDB7DEB7E697CDBFDEBF89AB53
:105690009AAB6BAB7CAB4DAB5EAB20E1CE01019620
:1056A000FC01322F11923A95E9F740E150E068E2AF
:1056B00070E0CE0101960E94BE928BA99CA9880F32
:1056C000991F880F991F880F991FCC01A0E0B0E0A7
:1056D00029A93AA9FE0171967C018D0140E850E0AC
:1056E000CE010196BC01CF010E94034B9E012F5EAB
:1056F0003F4F8DA99EA940E250E0B9010E94BB8FA7
:10570000E696CDBFDEBFDF91CF911F910F91FF9045
:10571000EF900895CF93DF93CDB7DEB7C95BD10982
:10572000CDBFDEBF9E0128543F4FF9018083918396
:1057300028E1CE010596FC01322F11923A95E9F746
:10574000CE01059648E150E06AE070E00E94BE920A
:1057500088E190E08D8F9E8FCE01059688A399A356
:10576000CE014D960E94612DCE0188549F4FFC01C1
:1057700080819181FC018081843051F080911F21D2
:105780009091202161EA72E20E9423720E94AD8F03
:10579000CE0188549F4FFC018081918101968983BD
:1057A0009A83CE0188549F4FFC0180819181499654
:1057B0008B839C8388E190E08AA39BA388E190E09F
:1057C0008FA398A789819A818DA39EA38B819C81A9
:1057D0008AA79BA7CE0182960E94612DCE01829658
:1057E00005960E94612DCE018C9660EC70E00E94BF
:1057F000A650882351F080911F219091202166ECC2
:1058000072E20E9423720E94AD8F9E012E5D3F4F77
:10581000CE018C96B9010E94A451CE018B5B9F4FA3
:1058200060EC70E00E94A650882351F080911F2107
:105830009091202166EC72E20E9423720E94AD8F4B
:10584000AE01445D5F4FBE01635E7F4FCE018B5B57
:105850009F4F28EE30E20E94DB59CE01825A9F4FC3
:1058600028E1FC01322F11923A95E9F7CE018A58CE
:105870009F4F28E1FC01322F11923A95E9F7CE01B2
:1058800082579F4F9E01225A3F4FFC01238334834E
:10589000CE0182579F4F9E012A583F4FFC0120871F
:1058A0003187CE0182579F4F28E130E0FC012083F1
:1058B0003183CE0182579F4F28E130E0FC012583E0
:1058C00036839E012B5B3F4FCE0182579F4F48EEA0
:1058D00050E2B9010E941D52CE0182579F4FFC0138
:1058E00063817481CE0188569F4F28E130E040E00B
:1058F00050E00E943061CE0188569F4F40E150E059
:1059000068E270E00E94DA92C754DF4FCDBFDEBF7D
:10591000DF91CF910895EF92FF920F931F93CF9352
:10592000DF93CDB7DEB7A297CDBFDEBF19821A8253
:105930001B821C828091BF219091C0218E579F4F66
:10594000FC0120818091BF219091C0218D579F4FF4
:10595000FC018081281709F44FC02091BF213091AC
:10596000C0218091BF219091C0218D579F4FFC0194
:105970008081882F90E0019687709078992324F495
:105980000197886F9F6F0196482FC9018D579F4FD0
:10599000FC0140834091BF215091C0218091BF21E3
:1059A0009091C0218D579F4FFC018081882F90E0FE
:1059B0009C01C901880F991F9C01C901880F991F7B
:1059C000880F991F880F991F821B930B42969A018B
:1059D000280F391FCE010D96B9010E94A025ED8434
:1059E000FE840F85188929893A894B895C896D89DC
:1059F0007E898F890E9412260E94E326882309F45B
:105A000044C08DB79EB78C010E9454268D839E831F
:105A10008D819E819C01215031092F8338872DB7BC
:105A20003EB7281B390B2DBF3EBF8DB79EB70196E1
:105A300089879A8789859A852D813E81A90160E0B1
:105A400070E00E94E38F89859A850E9420278B87CA
:105A50009C878B859C85853636E0930721F08637B9
:105A6000974049F010C089859A852D813E81B90102
:105A70000E94941008C089859A852D813E81B901C4
:105A80000E94C56600000DBF1EBF89819A81AB814F
:105A9000BC810196A11DB11DA170BB2789839A838A
:105AA000AB83BC8389819A81AB81BC810097A14083
:105AB000B10531F40E944925882311F00E94752513
:105AC00039CFCF93DF9300D01F92CDB7DEB78B8352
:105AD0009C830DC08B819C81FC01808191819C0104
